{
  "contractName": "AccountInfo",
  "abi": [
    {
      "inputs": [],
      "stateMutability": "nonpayable",
      "type": "constructor"
    },
    {
      "inputs": [],
      "name": "owner",
      "outputs": [
        {
          "internalType": "address",
          "name": "",
          "type": "address"
        }
      ],
      "stateMutability": "view",
      "type": "function",
      "constant": true
    },
    {
      "inputs": [
        {
          "internalType": "address",
          "name": "_sender",
          "type": "address"
        }
      ],
      "name": "getBalanceOf",
      "outputs": [
        {
          "internalType": "uint256",
          "name": "",
          "type": "uint256"
        }
      ],
      "stateMutability": "view",
      "type": "function",
      "constant": true
    }
  ],
  "bytecode": "0x608060405234801561001057600080fd5b50336000806101000a81548173ffffffffffffffffffffffffffffffffffffffff021916908373ffffffffffffffffffffffffffffffffffffffff1602179055506101f2806100606000396000f3fe608060405234801561001057600080fd5b50600436106100365760003560e01c80638da5cb5b1461003b5780639b96eece14610059575b600080fd5b610043610089565b604051610050919061010f565b60405180910390f35b610073600480360381019061006e919061015b565b6100ad565b60405161008091906101a1565b60405180910390f35b60008054906101000a900473ffffffffffffffffffffffffffffffffffffffff1681565b60008173ffffffffffffffffffffffffffffffffffffffff16319050919050565b600073ffffffffffffffffffffffffffffffffffffffff82169050919050565b60006100f9826100ce565b9050919050565b610109816100ee565b82525050565b60006020820190506101246000830184610100565b92915050565b600080fd5b610138816100ee565b811461014357600080fd5b50565b6000813590506101558161012f565b92915050565b6000602082840312156101715761017061012a565b5b600061017f84828501610146565b91505092915050565b6000819050919050565b61019b81610188565b82525050565b60006020820190506101b66000830184610192565b9291505056fea2646970667358221220ea0ad736e99757e3872197f044c75aab4d1879d81cfa427a566cd08fe0b017a764736f6c63430008100033",
  "immutableReferences": {},
  "source": "// SPDX-License-Identifier: MIT\r\npragma solidity ^0.8.0;\r\n\r\ncontract AccountInfo {\r\n    address public owner;\r\n\r\n    constructor() {\r\n        owner = msg.sender;\r\n    }\r\n\r\n    function getBalanceOf(address _sender) public view returns(uint){\r\n        return address(_sender).balance;\r\n    }\r\n}",
  "sourcePath": "C:\\Users\\vlad.pislaru\\Desktop\\Master_I_1\\Foundation-Of-Blockchains\\Project\\Time-Locked-Wallet\\time-locked-wallet\\server\\contracts\\AccountInfo.sol",
  "compiler": {
    "name": "solc",
    "version": "0.8.16+commit.07a7930e.Emscripten.clang"
  },
  "schemaVersion": "3.4.11",
  "updatedAt": "2023-01-15T09:43:38.310Z",
  "networkType": "ethereum",
  "devdoc": {
    "kind": "dev",
    "methods": {},
    "version": 1
  },
  "userdoc": {
    "kind": "user",
    "methods": {},
    "version": 1
  }
}