{
  "contractName": "TimeLock",
  "abi": [
    {
      "inputs": [],
      "stateMutability": "nonpayable",
      "type": "constructor"
    },
    {
      "inputs": [
        {
          "internalType": "bytes32",
          "name": "txId",
          "type": "bytes32"
        }
      ],
      "name": "AlreadyQueuedError",
      "type": "error"
    },
    {
      "inputs": [],
      "name": "NotOwnerError",
      "type": "error"
    },
    {
      "inputs": [
        {
          "internalType": "bytes32",
          "name": "txId",
          "type": "bytes32"
        }
      ],
      "name": "NotQueuedError",
      "type": "error"
    },
    {
      "inputs": [
        {
          "internalType": "uint256",
          "name": "blockTimestamp",
          "type": "uint256"
        },
        {
          "internalType": "uint256",
          "name": "expiresAt",
          "type": "uint256"
        }
      ],
      "name": "TimestampExpiredError",
      "type": "error"
    },
    {
      "inputs": [
        {
          "internalType": "uint256",
          "name": "blockTimestamp",
          "type": "uint256"
        },
        {
          "internalType": "uint256",
          "name": "timestamp",
          "type": "uint256"
        }
      ],
      "name": "TimestampNotInRangeError",
      "type": "error"
    },
    {
      "inputs": [
        {
          "internalType": "uint256",
          "name": "blockTimestamp",
          "type": "uint256"
        },
        {
          "internalType": "uint256",
          "name": "timestamp",
          "type": "uint256"
        }
      ],
      "name": "TimestampNotPassedError",
      "type": "error"
    },
    {
      "inputs": [],
      "name": "TxFailedError",
      "type": "error"
    },
    {
      "anonymous": false,
      "inputs": [
        {
          "indexed": true,
          "internalType": "bytes32",
          "name": "txId",
          "type": "bytes32"
        }
      ],
      "name": "Cancel",
      "type": "event"
    },
    {
      "anonymous": false,
      "inputs": [
        {
          "indexed": true,
          "internalType": "bytes32",
          "name": "txId",
          "type": "bytes32"
        },
        {
          "indexed": true,
          "internalType": "address",
          "name": "target",
          "type": "address"
        },
        {
          "indexed": false,
          "internalType": "uint256",
          "name": "value",
          "type": "uint256"
        },
        {
          "indexed": false,
          "internalType": "string",
          "name": "func",
          "type": "string"
        },
        {
          "indexed": false,
          "internalType": "bytes",
          "name": "data",
          "type": "bytes"
        },
        {
          "indexed": false,
          "internalType": "uint256",
          "name": "timestamp",
          "type": "uint256"
        }
      ],
      "name": "Execute",
      "type": "event"
    },
    {
      "anonymous": false,
      "inputs": [
        {
          "indexed": true,
          "internalType": "bytes32",
          "name": "txId",
          "type": "bytes32"
        },
        {
          "indexed": true,
          "internalType": "address",
          "name": "target",
          "type": "address"
        },
        {
          "indexed": false,
          "internalType": "uint256",
          "name": "value",
          "type": "uint256"
        },
        {
          "indexed": false,
          "internalType": "string",
          "name": "func",
          "type": "string"
        },
        {
          "indexed": false,
          "internalType": "bytes",
          "name": "data",
          "type": "bytes"
        },
        {
          "indexed": false,
          "internalType": "uint256",
          "name": "timestamp",
          "type": "uint256"
        }
      ],
      "name": "Queue",
      "type": "event"
    },
    {
      "inputs": [],
      "name": "GRACE_PERIOD",
      "outputs": [
        {
          "internalType": "uint256",
          "name": "",
          "type": "uint256"
        }
      ],
      "stateMutability": "view",
      "type": "function"
    },
    {
      "inputs": [],
      "name": "MAX_DELAY",
      "outputs": [
        {
          "internalType": "uint256",
          "name": "",
          "type": "uint256"
        }
      ],
      "stateMutability": "view",
      "type": "function"
    },
    {
      "inputs": [],
      "name": "MIN_DELAY",
      "outputs": [
        {
          "internalType": "uint256",
          "name": "",
          "type": "uint256"
        }
      ],
      "stateMutability": "view",
      "type": "function"
    },
    {
      "inputs": [],
      "name": "owner",
      "outputs": [
        {
          "internalType": "address",
          "name": "",
          "type": "address"
        }
      ],
      "stateMutability": "view",
      "type": "function"
    },
    {
      "inputs": [
        {
          "internalType": "bytes32",
          "name": "",
          "type": "bytes32"
        }
      ],
      "name": "txQueued",
      "outputs": [
        {
          "internalType": "bool",
          "name": "",
          "type": "bool"
        }
      ],
      "stateMutability": "view",
      "type": "function"
    },
    {
      "stateMutability": "payable",
      "type": "receive"
    },
    {
      "inputs": [
        {
          "internalType": "address",
          "name": "_target",
          "type": "address"
        },
        {
          "internalType": "uint256",
          "name": "_value",
          "type": "uint256"
        },
        {
          "internalType": "string",
          "name": "_func",
          "type": "string"
        },
        {
          "internalType": "bytes",
          "name": "_data",
          "type": "bytes"
        },
        {
          "internalType": "uint256",
          "name": "_timestamp",
          "type": "uint256"
        }
      ],
      "name": "getTxId",
      "outputs": [
        {
          "internalType": "bytes32",
          "name": "txId",
          "type": "bytes32"
        }
      ],
      "stateMutability": "pure",
      "type": "function"
    },
    {
      "inputs": [
        {
          "internalType": "address",
          "name": "_target",
          "type": "address"
        },
        {
          "internalType": "uint256",
          "name": "_value",
          "type": "uint256"
        },
        {
          "internalType": "string",
          "name": "_func",
          "type": "string"
        },
        {
          "internalType": "bytes",
          "name": "_data",
          "type": "bytes"
        },
        {
          "internalType": "uint256",
          "name": "_timestamp",
          "type": "uint256"
        }
      ],
      "name": "queue",
      "outputs": [],
      "stateMutability": "nonpayable",
      "type": "function"
    },
    {
      "inputs": [
        {
          "internalType": "address",
          "name": "_target",
          "type": "address"
        },
        {
          "internalType": "uint256",
          "name": "_value",
          "type": "uint256"
        },
        {
          "internalType": "string",
          "name": "_func",
          "type": "string"
        },
        {
          "internalType": "bytes",
          "name": "_data",
          "type": "bytes"
        },
        {
          "internalType": "uint256",
          "name": "_timestamp",
          "type": "uint256"
        }
      ],
      "name": "execute",
      "outputs": [
        {
          "internalType": "bytes",
          "name": "",
          "type": "bytes"
        }
      ],
      "stateMutability": "payable",
      "type": "function"
    },
    {
      "inputs": [
        {
          "internalType": "bytes32",
          "name": "_txId",
          "type": "bytes32"
        }
      ],
      "name": "cancel",
      "outputs": [],
      "stateMutability": "nonpayable",
      "type": "function"
    }
  ],
  "bytecode": "0x608060405234801561001057600080fd5b50336000806101000a81548173ffffffffffffffffffffffffffffffffffffffff021916908373ffffffffffffffffffffffffffffffffffffffff160217905550611063806100606000396000f3fe60806040526004361061008a5760003560e01c80638da5cb5b116100595780638da5cb5b146101645780639f81aed71461018f578063b0f8b142146101ba578063c1a287e2146101ea578063c4d252f51461021557610091565b8063134ee3c9146100965780634125ff90146100d35780634b9915a5146100fe5780638a1ce0b61461012757610091565b3661009157005b600080fd5b3480156100a257600080fd5b506100bd60048036038101906100b891906109c5565b61023e565b6040516100ca9190610a0d565b60405180910390f35b3480156100df57600080fd5b506100e861025e565b6040516100f59190610a41565b60405180910390f35b34801561010a57600080fd5b5061012560048036038101906101209190610ba1565b610264565b005b34801561013357600080fd5b5061014e60048036038101906101499190610ba1565b610457565b60405161015b9190610c6c565b60405180910390f35b34801561017057600080fd5b50610179610499565b6040516101869190610c96565b60405180910390f35b34801561019b57600080fd5b506101a46104bd565b6040516101b19190610a41565b60405180910390f35b6101d460048036038101906101cf9190610ba1565b6104c2565b6040516101e19190610d41565b60405180910390f35b3480156101f657600080fd5b506101ff61083c565b60405161020c9190610a41565b60405180910390f35b34801561022157600080fd5b5061023c600480360381019061023791906109c5565b610842565b005b60016020528060005260406000206000915054906101000a900460ff1681565b6103e881565b60008054906101000a900473ffffffffffffffffffffffffffffffffffffffff1673ffffffffffffffffffffffffffffffffffffffff163373ffffffffffffffffffffffffffffffffffffffff16146102e9576040517f74a2152700000000000000000000000000000000000000000000000000000000815260040160405180910390fd5b60006102fa88888888888888610457565b90506001600082815260200190815260200160002060009054906101000a900460ff161561035f57806040517f995042be0000000000000000000000000000000000000000000000000000000081526004016103569190610c6c565b60405180910390fd5b600a4261036c9190610d92565b82108061038557506103e8426103829190610d92565b82115b156103c95742826040517f1a9616c20000000000000000000000000000000000000000000000000000000081526004016103c0929190610dc6565b60405180910390fd5b600180600083815260200190815260200160002060006101000a81548160ff0219169083151502179055508773ffffffffffffffffffffffffffffffffffffffff16817f3c22f47140594040d205a5533cfedd86c9ab8622c39ead03affb2d97052c794c89898989898960405161044596959493929190610e69565b60405180910390a35050505050505050565b6000878787878787876040516020016104769796959493929190610ec0565b604051602081830303815290604052805190602001209050979650505050505050565b60008054906101000a900473ffffffffffffffffffffffffffffffffffffffff1681565b600a81565b606060008054906101000a900473ffffffffffffffffffffffffffffffffffffffff1673ffffffffffffffffffffffffffffffffffffffff163373ffffffffffffffffffffffffffffffffffffffff1614610549576040517f74a2152700000000000000000000000000000000000000000000000000000000815260040160405180910390fd5b600061055a89898989898989610457565b90506001600082815260200190815260200160002060009054906101000a900460ff166105be57806040517f0995c9d50000000000000000000000000000000000000000000000000000000081526004016105b59190610c6c565b60405180910390fd5b824210156106055742836040517f035fce5b0000000000000000000000000000000000000000000000000000000081526004016105fc929190610dc6565b60405180910390fd5b6103e8836106139190610d92565b42111561066657426103e8846106299190610d92565b6040517f92ae26d100000000000000000000000000000000000000000000000000000000815260040161065d929190610dc6565b60405180910390fd5b60006001600083815260200190815260200160002060006101000a81548160ff021916908315150217905550606060008888905011156106e25787876040516106b0929190610f55565b604051809103902086866040516020016106cc93929190610fbb565b604051602081830303815290604052905061072a565b85858080601f016020809104026020016040519081016040528093929190818152602001838380828437600081840152601f19601f8201169050808301925050505050505090505b6000808b73ffffffffffffffffffffffffffffffffffffffff168b846040516107539190611016565b60006040518083038185875af1925050503d8060008114610790576040519150601f19603f3d011682016040523d82523d6000602084013e610795565b606091505b5091509150816107d1576040517fd9b4f81e00000000000000000000000000000000000000000000000000000000815260040160405180910390fd5b8b73ffffffffffffffffffffffffffffffffffffffff16847fd1d5c3c892c18716bd88852091d1b63dc6849e9d7c37f69d566884bf954d4bd98d8d8d8d8d8d60405161082296959493929190610e69565b60405180910390a380945050505050979650505050505050565b6103e881565b60008054906101000a900473ffffffffffffffffffffffffffffffffffffffff1673ffffffffffffffffffffffffffffffffffffffff163373ffffffffffffffffffffffffffffffffffffffff16146108c7576040517f74a2152700000000000000000000000000000000000000000000000000000000815260040160405180910390fd5b6001600082815260200190815260200160002060009054906101000a900460ff1661092957806040517f0995c9d50000000000000000000000000000000000000000000000000000000081526004016109209190610c6c565b60405180910390fd5b60006001600083815260200190815260200160002060006101000a81548160ff021916908315150217905550807fe8d9861dbc9c663ed3accd261bbe2fe01e0d3d9e5f51fa38523b265c7757a93a60405160405180910390a250565b600080fd5b600080fd5b6000819050919050565b6109a28161098f565b81146109ad57600080fd5b50565b6000813590506109bf81610999565b92915050565b6000602082840312156109db576109da610985565b5b60006109e9848285016109b0565b91505092915050565b60008115159050919050565b610a07816109f2565b82525050565b6000602082019050610a2260008301846109fe565b92915050565b6000819050919050565b610a3b81610a28565b82525050565b6000602082019050610a566000830184610a32565b92915050565b600073ffffffffffffffffffffffffffffffffffffffff82169050919050565b6000610a8782610a5c565b9050919050565b610a9781610a7c565b8114610aa257600080fd5b50565b600081359050610ab481610a8e565b92915050565b610ac381610a28565b8114610ace57600080fd5b50565b600081359050610ae081610aba565b92915050565b600080fd5b600080fd5b600080fd5b60008083601f840112610b0b57610b0a610ae6565b5b8235905067ffffffffffffffff811115610b2857610b27610aeb565b5b602083019150836001820283011115610b4457610b43610af0565b5b9250929050565b60008083601f840112610b6157610b60610ae6565b5b8235905067ffffffffffffffff811115610b7e57610b7d610aeb565b5b602083019150836001820283011115610b9a57610b99610af0565b5b9250929050565b600080600080600080600060a0888a031215610bc057610bbf610985565b5b6000610bce8a828b01610aa5565b9750506020610bdf8a828b01610ad1565b965050604088013567ffffffffffffffff811115610c0057610bff61098a565b5b610c0c8a828b01610af5565b9550955050606088013567ffffffffffffffff811115610c2f57610c2e61098a565b5b610c3b8a828b01610b4b565b93509350506080610c4e8a828b01610ad1565b91505092959891949750929550565b610c668161098f565b82525050565b6000602082019050610c816000830184610c5d565b92915050565b610c9081610a7c565b82525050565b6000602082019050610cab6000830184610c87565b92915050565b600081519050919050565b600082825260208201905092915050565b60005b83811015610ceb578082015181840152602081019050610cd0565b60008484015250505050565b6000601f19601f8301169050919050565b6000610d1382610cb1565b610d1d8185610cbc565b9350610d2d818560208601610ccd565b610d3681610cf7565b840191505092915050565b60006020820190508181036000830152610d5b8184610d08565b905092915050565b7f4e487b7100000000000000000000000000000000000000000000000000000000600052601160045260246000fd5b6000610d9d82610a28565b9150610da883610a28565b9250828201905080821115610dc057610dbf610d63565b5b92915050565b6000604082019050610ddb6000830185610a32565b610de86020830184610a32565b9392505050565b600082825260208201905092915050565b82818337600083830152505050565b6000610e1b8385610def565b9350610e28838584610e00565b610e3183610cf7565b840190509392505050565b6000610e488385610cbc565b9350610e55838584610e00565b610e5e83610cf7565b840190509392505050565b6000608082019050610e7e6000830189610a32565b8181036020830152610e91818789610e0f565b90508181036040830152610ea6818587610e3c565b9050610eb56060830184610a32565b979650505050505050565b600060a082019050610ed5600083018a610c87565b610ee26020830189610a32565b8181036040830152610ef5818789610e0f565b90508181036060830152610f0a818587610e3c565b9050610f196080830184610a32565b98975050505050505050565b600081905092915050565b6000610f3c8385610f25565b9350610f49838584610e00565b82840190509392505050565b6000610f62828486610f30565b91508190509392505050565b60007fffffffff0000000000000000000000000000000000000000000000000000000082169050919050565b6000819050919050565b610fb5610fb082610f6e565b610f9a565b82525050565b6000610fc78286610fa4565b600482019150610fd8828486610f30565b9150819050949350505050565b6000610ff082610cb1565b610ffa8185610f25565b935061100a818560208601610ccd565b80840191505092915050565b60006110228284610fe5565b91508190509291505056fea264697066735822122009ec091cfd6e63dc6ddded6a59bae3508f081186907491790aa292b8c7a84ded64736f6c63430008110033",
  "immutableReferences": {},
  "source": "pragma solidity >=0.8.0 <0.9.0;\r\n\r\ncontract TimeLock{\r\n    address public owner; // owner of the contract\r\n\r\n    mapping(bytes32 => bool) public txQueued;\r\n\r\n    uint public constant MIN_DELAY = 10; // 10 sec usually 1 day - 2 weeks\r\n    uint public constant MAX_DELAY = 1000; // usually 30 days\r\n    uint public constant GRACE_PERIOD = 1000; \r\n\r\n    event Queue(\r\n        bytes32 indexed txId,\r\n        address indexed target, // address of contract\r\n        uint value,   // amount to send\r\n        string func, // function\r\n        bytes data, // param of function\r\n        uint timestamp   // time when transaction can be executed\r\n    );\r\n\r\n     event Execute(\r\n        bytes32 indexed txId,\r\n        address indexed target, // address of contract\r\n        uint value,   // amount to send\r\n        string func, // function\r\n        bytes data, // param of function\r\n        uint timestamp   // time when transaction can be executed\r\n    );\r\n\r\n    event Cancel(bytes32 indexed txId);\r\n\r\n    error AlreadyQueuedError(bytes32 txId);\r\n    error NotOwnerError(); \r\n    error TimestampNotInRangeError(uint blockTimestamp, uint timestamp); \r\n    error NotQueuedError(bytes32 txId);\r\n    error TimestampNotPassedError(uint blockTimestamp, uint timestamp);\r\n    error TimestampExpiredError(uint blockTimestamp, uint expiresAt);\r\n    error TxFailedError();\r\n\r\n    constructor(){\r\n        owner = msg.sender;\r\n    }\r\n\r\n    receive() external payable {} // set up for contract to receive ETH\r\n\r\n    modifier onlyOwner(){\r\n        if(msg.sender != owner){\r\n            revert NotOwnerError();\r\n        }\r\n        _; // execute the rest of the code\r\n    }\r\n\r\n   function getTxId( // compute the transaction id\r\n        address _target, // address of contract\r\n        uint _value,   // amount to send\r\n        string calldata _func, // function\r\n        bytes calldata _data, // param of function\r\n        uint _timestamp   // time when transaction can be executed\r\n   ) public pure returns (bytes32 txId){\r\n        return keccak256( // calculate hash of param\r\n            abi.encode(\r\n                _target, _value, _func, _data, _timestamp\r\n            )\r\n        );\r\n   }\r\n\r\n    function queue(  // queue a transaction\r\n        address _target, // address of contract\r\n        uint _value,   // amount to send\r\n        string calldata _func, // function\r\n        bytes calldata _data, // param of function\r\n        uint _timestamp   // time when transaction can be executed\r\n    ) external onlyOwner{\r\n\r\n        bytes32 txId = getTxId(_target, _value, _func, _data, _timestamp); // transaction id\r\n\r\n        // check if transaction is queued\r\n        if(txQueued[txId]){\r\n            revert AlreadyQueuedError(txId);\r\n        }\r\n\r\n        // check timestamp\r\n        // ---|------------------|---------------|--------\r\n        //   block         block + min     block + max\r\n        if(_timestamp < block.timestamp + MIN_DELAY || \r\n           _timestamp > block.timestamp + MAX_DELAY \r\n        ){\r\n            revert TimestampNotInRangeError(block.timestamp, _timestamp);\r\n        }\r\n\r\n        // queue tx \r\n        txQueued[txId] = true;\r\n\r\n        // emit the event\r\n        emit Queue(txId, _target, _value, _func, _data, _timestamp);\r\n        \r\n    }    \r\n\r\n    function execute(\r\n        address _target, // address of contract\r\n        uint _value,   // amount to send\r\n        string calldata _func, // function\r\n        bytes calldata _data, // param of function\r\n        uint _timestamp   // time when transaction can be executed\r\n    ) external payable onlyOwner returns (bytes memory){ // execute transaction after time passed\r\n        \r\n        bytes32 txId = getTxId(_target, _value, _func, _data, _timestamp); // transaction id\r\n        \r\n        // check tx is queued\r\n        if(!txQueued[txId]){\r\n            revert NotQueuedError(txId);\r\n        }\r\n\r\n        // check block.timestamp > _timestamp\r\n        if(block.timestamp < _timestamp){\r\n            revert TimestampNotPassedError(block.timestamp, _timestamp);\r\n        }\r\n\r\n        // check if transaction is not \"expired\"\r\n        // ---|-----------------------|------------------------\r\n        //   timestamp      timestamp + grace period    \r\n        if(block.timestamp > _timestamp + GRACE_PERIOD){\r\n            revert TimestampExpiredError(block.timestamp, _timestamp + GRACE_PERIOD);\r\n        }\r\n\r\n        // delete tx from queue\r\n        txQueued[txId] = false;\r\n\r\n        bytes memory data;\r\n\r\n        if(bytes(_func).length > 0){\r\n            data = abi.encodePacked(\r\n                bytes4(keccak256(bytes(_func))), _data // hash(4 bytes of function and append data)\r\n            );\r\n        } else{\r\n            data = _data;\r\n        }\r\n\r\n        // excute the tx\r\n        (bool sent, bytes memory response) = _target.call{value: _value}(data);\r\n        if(!sent){\r\n            revert TxFailedError();\r\n        }\r\n\r\n        emit Execute(txId, _target, _value, _func, _data, _timestamp);\r\n\r\n        return response;\r\n\r\n    }\r\n\r\n    function cancel(bytes32 _txId) external onlyOwner {\r\n        if(!txQueued[_txId]){\r\n            revert NotQueuedError(_txId);\r\n        }\r\n\r\n        txQueued[_txId] = false;\r\n\r\n        emit Cancel(_txId);\r\n\r\n    }  \r\n}\r\n\r\ncontract TestTimeLock{\r\n    address public timeLock;\r\n\r\n    constructor(address _timeLock){\r\n        timeLock = _timeLock;\r\n    }\r\n\r\n    function test() external {\r\n        require(msg.sender == timeLock, \"not timelock\"); //called only by the TimeLock contract\r\n        // more code such as\r\n        // - upgrade contract\r\n        // - transfer funds\r\n        \r\n    }\r\n\r\n    function getTimestamp() external view returns (uint){\r\n        return block.timestamp + 100;\r\n    }\r\n}\r\n\r\n",
  "sourcePath": "C:\\Users\\vlad.pislaru\\Desktop\\Master_I_1\\Foundation-Of-Blockchains\\Project\\NewProject\\Time-Locked-Wallet\\time-locked-wallet\\server\\contracts\\TimeLock.sol",
  "compiler": {
    "name": "solc",
    "version": "0.8.17+commit.8df45f5f.Emscripten.clang"
  },
  "schemaVersion": "3.4.11",
  "updatedAt": "2022-12-19T18:57:21.895Z",
  "devdoc": {
    "kind": "dev",
    "methods": {},
    "version": 1
  },
  "userdoc": {
    "kind": "user",
    "methods": {},
    "version": 1
  }
}