{
  "contractName": "TestTimeLock",
  "abi": [
    {
      "inputs": [
        {
          "internalType": "address",
          "name": "_timeLock",
          "type": "address"
        }
      ],
      "stateMutability": "nonpayable",
      "type": "constructor"
    },
    {
      "inputs": [],
      "name": "timeLock",
      "outputs": [
        {
          "internalType": "address",
          "name": "",
          "type": "address"
        }
      ],
      "stateMutability": "view",
      "type": "function"
    },
    {
      "inputs": [],
      "name": "test",
      "outputs": [],
      "stateMutability": "nonpayable",
      "type": "function"
    },
    {
      "inputs": [],
      "name": "getTimestamp",
      "outputs": [
        {
          "internalType": "uint256",
          "name": "",
          "type": "uint256"
        }
      ],
      "stateMutability": "view",
      "type": "function"
    }
  ],
  "bytecode": "0x608060405234801561001057600080fd5b50604051610411380380610411833981810160405281019061003291906100db565b806000806101000a81548173ffffffffffffffffffffffffffffffffffffffff021916908373ffffffffffffffffffffffffffffffffffffffff16021790555050610108565b600080fd5b600073ffffffffffffffffffffffffffffffffffffffff82169050919050565b60006100a88261007d565b9050919050565b6100b88161009d565b81146100c357600080fd5b50565b6000815190506100d5816100af565b92915050565b6000602082840312156100f1576100f0610078565b5b60006100ff848285016100c6565b91505092915050565b6102fa806101176000396000f3fe608060405234801561001057600080fd5b50600436106100415760003560e01c8063188ec35614610046578063d085835a14610064578063f8a8fd6d14610082575b600080fd5b61004e61008c565b60405161005b919061016d565b60405180910390f35b61006c6100a0565b60405161007991906101c9565b60405180910390f35b61008a6100c4565b005b600060644261009b9190610213565b905090565b60008054906101000a900473ffffffffffffffffffffffffffffffffffffffff1681565b60008054906101000a900473ffffffffffffffffffffffffffffffffffffffff1673ffffffffffffffffffffffffffffffffffffffff163373ffffffffffffffffffffffffffffffffffffffff1614610152576040517f08c379a0000000000000000000000000000000000000000000000000000000008152600401610149906102a4565b60405180910390fd5b565b6000819050919050565b61016781610154565b82525050565b6000602082019050610182600083018461015e565b92915050565b600073ffffffffffffffffffffffffffffffffffffffff82169050919050565b60006101b382610188565b9050919050565b6101c3816101a8565b82525050565b60006020820190506101de60008301846101ba565b92915050565b7f4e487b7100000000000000000000000000000000000000000000000000000000600052601160045260246000fd5b600061021e82610154565b915061022983610154565b9250828201905080821115610241576102406101e4565b5b92915050565b600082825260208201905092915050565b7f6e6f742074696d656c6f636b0000000000000000000000000000000000000000600082015250565b600061028e600c83610247565b915061029982610258565b602082019050919050565b600060208201905081810360008301526102bd81610281565b905091905056fea26469706673582212202fa45c062f69b96bf4b7e5e5bb31c6c72ab51ad199554071e2e0ccf39dd425b664736f6c63430008110033",
  "immutableReferences": {},
  "source": "//SPDX-License-Identifier: UNLICENSED\r\npragma solidity >=0.8.0 <0.9.0;\r\n\r\ncontract TimeLock{\r\n    address public owner; // owner of the contract\r\n\r\n    mapping(bytes32 => bool) public txQueued;\r\n\r\n    uint public constant MIN_DELAY = 10; // 10 sec usually 1 day - 2 weeks\r\n    uint public constant MAX_DELAY = 1000; // usually 30 days\r\n    uint public constant GRACE_PERIOD = 1000; \r\n\r\n    event Queue(\r\n        bytes32 indexed txId,\r\n        address indexed target, // address of contract\r\n        uint value,   // amount to send\r\n        string func, // function\r\n        bytes data, // param of function\r\n        uint timestamp   // time when transaction can be executed\r\n    );\r\n\r\n     event Execute(\r\n        bytes32 indexed txId,\r\n        address indexed target, // address of contract\r\n        uint value,   // amount to send\r\n        string func, // function\r\n        bytes data, // param of function\r\n        uint timestamp   // time when transaction can be executed\r\n    );\r\n\r\n    event Cancel(bytes32 indexed txId);\r\n\r\n    error AlreadyQueuedError(bytes32 txId);\r\n    error NotOwnerError(); \r\n    error TimestampNotInRangeError(uint blockTimestamp, uint timestamp); \r\n    error NotQueuedError(bytes32 txId);\r\n    error TimestampNotPassedError(uint blockTimestamp, uint timestamp);\r\n    error TimestampExpiredError(uint blockTimestamp, uint expiresAt);\r\n    error TxFailedError();\r\n\r\n    constructor(){\r\n        owner = msg.sender;\r\n    }\r\n\r\n    receive() external payable {} // set up for contract to receive ETH\r\n\r\n    modifier onlyOwner(){\r\n        if(msg.sender != owner){\r\n            revert NotOwnerError();\r\n        }\r\n        _; // execute the rest of the code\r\n    }\r\n\r\n   function getTxId( // compute the transaction id\r\n        address _target, // address of contract\r\n        uint _value,   // amount to send\r\n        string calldata _func, // function\r\n        bytes calldata _data, // param of function\r\n        uint _timestamp   // time when transaction can be executed\r\n   ) public pure returns (bytes32 txId){\r\n        return keccak256( // calculate hash of param\r\n            abi.encode(\r\n                _target, _value, _func, _data, _timestamp\r\n            )\r\n        );\r\n   }\r\n\r\n    function queue(  // queue a transaction\r\n        address _target, // address of contract\r\n        uint _value,   // amount to send\r\n        string calldata _func, // function\r\n        bytes calldata _data, // param of function\r\n        uint _timestamp   // time when transaction can be executed\r\n    ) external onlyOwner{\r\n\r\n        bytes32 txId = getTxId(_target, _value, _func, _data, _timestamp); // transaction id\r\n\r\n        // check if transaction is queued\r\n        if(txQueued[txId]){\r\n            revert AlreadyQueuedError(txId);\r\n        }\r\n\r\n        // check timestamp\r\n        // ---|------------------|---------------|--------\r\n        //   block         block + min     block + max\r\n        if(_timestamp < block.timestamp + MIN_DELAY || \r\n           _timestamp > block.timestamp + MAX_DELAY \r\n        ){\r\n            revert TimestampNotInRangeError(block.timestamp, _timestamp);\r\n        }\r\n\r\n        // queue tx \r\n        txQueued[txId] = true;\r\n\r\n        // emit the event\r\n        emit Queue(txId, _target, _value, _func, _data, _timestamp);\r\n        \r\n    }    \r\n\r\n    function execute(\r\n        address _target, // address of contract\r\n        uint _value,   // amount to send\r\n        string calldata _func, // function\r\n        bytes calldata _data, // param of function\r\n        uint _timestamp   // time when transaction can be executed\r\n    ) external payable onlyOwner returns (bytes memory){ // execute transaction after time passed\r\n        \r\n        bytes32 txId = getTxId(_target, _value, _func, _data, _timestamp); // transaction id\r\n        \r\n        // check tx is queued\r\n        if(!txQueued[txId]){\r\n            revert NotQueuedError(txId);\r\n        }\r\n\r\n        // check block.timestamp > _timestamp\r\n        if(block.timestamp < _timestamp){\r\n            revert TimestampNotPassedError(block.timestamp, _timestamp);\r\n        }\r\n\r\n        // check if transaction is not \"expired\"\r\n        // ---|-----------------------|------------------------\r\n        //   timestamp      timestamp + grace period    \r\n        if(block.timestamp > _timestamp + GRACE_PERIOD){\r\n            revert TimestampExpiredError(block.timestamp, _timestamp + GRACE_PERIOD);\r\n        }\r\n\r\n        // delete tx from queue\r\n        txQueued[txId] = false;\r\n\r\n        bytes memory data;\r\n\r\n        if(bytes(_func).length > 0){\r\n            data = abi.encodePacked(\r\n                bytes4(keccak256(bytes(_func))), _data // hash(4 bytes of function and append data)\r\n            );\r\n        } else{\r\n            data = _data;\r\n        }\r\n\r\n        // excute the tx\r\n        (bool sent, bytes memory response) = _target.call{value: _value}(data);\r\n        if(!sent){\r\n            revert TxFailedError();\r\n        }\r\n\r\n        emit Execute(txId, _target, _value, _func, _data, _timestamp);\r\n\r\n        return response;\r\n\r\n    }\r\n\r\n    function cancel(bytes32 _txId) external onlyOwner {\r\n        if(!txQueued[_txId]){\r\n            revert NotQueuedError(_txId);\r\n        }\r\n\r\n        txQueued[_txId] = false;\r\n\r\n        emit Cancel(_txId);\r\n\r\n    }  \r\n}\r\n\r\ncontract TestTimeLock{\r\n    address public timeLock;\r\n\r\n    constructor(address _timeLock){\r\n        timeLock = _timeLock;\r\n    }\r\n\r\n    function test() external {\r\n        require(msg.sender == timeLock, \"not timelock\"); //called only by the TimeLock contract\r\n        // more code such as\r\n        // - upgrade contract\r\n        // - transfer funds\r\n        \r\n    }\r\n\r\n    function getTimestamp() external view returns (uint){\r\n        return block.timestamp + 100;\r\n    }\r\n}\r\n\r\n",
  "sourcePath": "C:\\Users\\vlad.pislaru\\Desktop\\Master_I_1\\Foundation-Of-Blockchains\\Project\\Time-Locked-Wallet\\time-locked-wallet\\server\\contracts\\TimeLock.sol",
  "compiler": {
    "name": "solc",
    "version": "0.8.17+commit.8df45f5f.Emscripten.clang"
  },
  "schemaVersion": "3.4.11",
  "updatedAt": "2022-12-29T16:48:21.627Z",
  "devdoc": {
    "kind": "dev",
    "methods": {},
    "version": 1
  },
  "userdoc": {
    "kind": "user",
    "methods": {},
    "version": 1
  }
}