{
  "contractName": "TimeLock",
  "abi": [
    {
      "inputs": [],
      "stateMutability": "nonpayable",
      "type": "constructor"
    },
    {
      "anonymous": false,
      "inputs": [
        {
          "indexed": true,
          "internalType": "bytes32",
          "name": "txId",
          "type": "bytes32"
        },
        {
          "indexed": true,
          "internalType": "address",
          "name": "target",
          "type": "address"
        },
        {
          "indexed": false,
          "internalType": "uint256",
          "name": "value",
          "type": "uint256"
        },
        {
          "indexed": false,
          "internalType": "uint256",
          "name": "timestamp",
          "type": "uint256"
        },
        {
          "indexed": false,
          "internalType": "uint256",
          "name": "start_timestamp",
          "type": "uint256"
        }
      ],
      "name": "Cancel",
      "type": "event"
    },
    {
      "anonymous": false,
      "inputs": [
        {
          "indexed": true,
          "internalType": "bytes32",
          "name": "txId",
          "type": "bytes32"
        },
        {
          "indexed": true,
          "internalType": "address",
          "name": "target",
          "type": "address"
        },
        {
          "indexed": false,
          "internalType": "uint256",
          "name": "value",
          "type": "uint256"
        },
        {
          "indexed": false,
          "internalType": "uint256",
          "name": "timestamp",
          "type": "uint256"
        },
        {
          "indexed": false,
          "internalType": "uint256",
          "name": "start_timestamp",
          "type": "uint256"
        }
      ],
      "name": "Execute",
      "type": "event"
    },
    {
      "anonymous": false,
      "inputs": [
        {
          "indexed": true,
          "internalType": "bytes32",
          "name": "txId",
          "type": "bytes32"
        },
        {
          "indexed": true,
          "internalType": "address",
          "name": "target",
          "type": "address"
        },
        {
          "indexed": false,
          "internalType": "uint256",
          "name": "value",
          "type": "uint256"
        },
        {
          "indexed": false,
          "internalType": "uint256",
          "name": "timestamp",
          "type": "uint256"
        },
        {
          "indexed": false,
          "internalType": "uint256",
          "name": "start_timestamp",
          "type": "uint256"
        }
      ],
      "name": "Queue",
      "type": "event"
    },
    {
      "anonymous": false,
      "inputs": [
        {
          "indexed": false,
          "internalType": "uint256",
          "name": "val",
          "type": "uint256"
        }
      ],
      "name": "Value",
      "type": "event"
    },
    {
      "inputs": [],
      "name": "MIN_COMMISION_RATE",
      "outputs": [
        {
          "internalType": "uint256",
          "name": "",
          "type": "uint256"
        }
      ],
      "stateMutability": "view",
      "type": "function",
      "constant": true
    },
    {
      "inputs": [],
      "name": "owner",
      "outputs": [
        {
          "internalType": "address",
          "name": "",
          "type": "address"
        }
      ],
      "stateMutability": "view",
      "type": "function",
      "constant": true
    },
    {
      "inputs": [
        {
          "internalType": "bytes32",
          "name": "",
          "type": "bytes32"
        }
      ],
      "name": "queued",
      "outputs": [
        {
          "internalType": "bool",
          "name": "",
          "type": "bool"
        }
      ],
      "stateMutability": "view",
      "type": "function",
      "constant": true
    },
    {
      "stateMutability": "payable",
      "type": "receive",
      "payable": true
    },
    {
      "inputs": [
        {
          "internalType": "address",
          "name": "_target",
          "type": "address"
        },
        {
          "internalType": "uint256",
          "name": "_value",
          "type": "uint256"
        },
        {
          "internalType": "uint256",
          "name": "_timestamp",
          "type": "uint256"
        },
        {
          "internalType": "string",
          "name": "_passCode",
          "type": "string"
        },
        {
          "internalType": "uint256",
          "name": "start_timestamp",
          "type": "uint256"
        }
      ],
      "name": "getTxId",
      "outputs": [
        {
          "internalType": "bytes32",
          "name": "",
          "type": "bytes32"
        }
      ],
      "stateMutability": "pure",
      "type": "function",
      "constant": true
    },
    {
      "inputs": [
        {
          "internalType": "uint256",
          "name": "_value",
          "type": "uint256"
        },
        {
          "internalType": "uint256",
          "name": "_timestamp",
          "type": "uint256"
        },
        {
          "internalType": "uint256",
          "name": "start_timestamp",
          "type": "uint256"
        },
        {
          "internalType": "string",
          "name": "_passCode",
          "type": "string"
        }
      ],
      "name": "queue",
      "outputs": [
        {
          "internalType": "bytes32",
          "name": "txId",
          "type": "bytes32"
        }
      ],
      "stateMutability": "payable",
      "type": "function",
      "payable": true
    },
    {
      "inputs": [
        {
          "internalType": "address",
          "name": "_target",
          "type": "address"
        },
        {
          "internalType": "uint256",
          "name": "_value",
          "type": "uint256"
        }
      ],
      "name": "transferFunds",
      "outputs": [],
      "stateMutability": "payable",
      "type": "function",
      "payable": true
    },
    {
      "inputs": [
        {
          "internalType": "uint256",
          "name": "_value",
          "type": "uint256"
        },
        {
          "internalType": "uint256",
          "name": "_timestamp",
          "type": "uint256"
        },
        {
          "internalType": "uint256",
          "name": "start_timestamp",
          "type": "uint256"
        },
        {
          "internalType": "string",
          "name": "_passCode",
          "type": "string"
        }
      ],
      "name": "execute",
      "outputs": [],
      "stateMutability": "payable",
      "type": "function",
      "payable": true
    },
    {
      "inputs": [
        {
          "internalType": "uint256",
          "name": "_value",
          "type": "uint256"
        },
        {
          "internalType": "uint256",
          "name": "_timestamp",
          "type": "uint256"
        },
        {
          "internalType": "uint256",
          "name": "start_timestamp",
          "type": "uint256"
        },
        {
          "internalType": "string",
          "name": "_passCode",
          "type": "string"
        }
      ],
      "name": "cancel",
      "outputs": [],
      "stateMutability": "payable",
      "type": "function",
      "payable": true
    },
    {
      "inputs": [],
      "name": "getTimestamp",
      "outputs": [
        {
          "internalType": "uint256",
          "name": "",
          "type": "uint256"
        }
      ],
      "stateMutability": "view",
      "type": "function",
      "constant": true
    }
  ],
  "bytecode": "0x6080604052601460005534801561001557600080fd5b5033600160006101000a81548173ffffffffffffffffffffffffffffffffffffffff021916908373ffffffffffffffffffffffffffffffffffffffff1602179055506110de806100666000396000f3fe6080604052600436106100895760003560e01c80635d987275116100595780635d9872751461016a5780638da5cb5b14610186578063990dc9db146101b15780639d9c9803146101cd578063ff236024146101f857610090565b8062cf3bb914610095578063042a7d77146100c5578063188ec35614610102578063228250c91461012d57610090565b3661009057005b600080fd5b6100af60048036038101906100aa9190610956565b610214565b6040516100bc91906109f2565b60405180910390f35b3480156100d157600080fd5b506100ec60048036038101906100e79190610a6b565b61030d565b6040516100f991906109f2565b60405180910390f35b34801561010e57600080fd5b50610117610349565b6040516101249190610b11565b60405180910390f35b34801561013957600080fd5b50610154600480360381019061014f9190610b58565b610351565b6040516101619190610ba0565b60405180910390f35b610184600480360381019061017f9190610956565b610371565b005b34801561019257600080fd5b5061019b6104b4565b6040516101a89190610bca565b60405180910390f35b6101cb60048036038101906101c69190610be5565b6104da565b005b3480156101d957600080fd5b506101e2610594565b6040516101ef9190610b11565b60405180910390f35b610212600480360381019061020d9190610956565b61059a565b005b6000610223338686858761030d565b90506002600082815260200190815260200160002060009054906101000a900460ff1615610286576040517f08c379a000000000000000000000000000000000000000000000000000000000815260040161027d90610c82565b60405180910390fd5b60016002600083815260200190815260200160002060006101000a81548160ff0219169083151502179055503373ffffffffffffffffffffffffffffffffffffffff16817f9fbdb229fa51b3e2ef3410ecf40620ab19c7e9b3f0fc44177fc373078f2209288787876040516102fd93929190610ca2565b60405180910390a3949350505050565b60008585858585604051602001610328959493929190610d47565b60405160208183030381529060405280519060200120905095945050505050565b600042905090565b60026020528060005260406000206000915054906101000a900460ff1681565b6000610380338686858761030d565b90506002600082815260200190815260200160002060009054906101000a900460ff166103e2576040517f08c379a00000000000000000000000000000000000000000000000000000000081526004016103d990610e39565b60405180910390fd5b834211610424576040517f08c379a000000000000000000000000000000000000000000000000000000000815260040161041b90610ecb565b60405180910390fd5b60006002600083815260200190815260200160002060006101000a81548160ff02191690831515021790555061045a33866104da565b3373ffffffffffffffffffffffffffffffffffffffff16817f64258e87522d2a5524567cc4d1b072258509892afb5112a13f26c0f85deb68d28787876040516104a593929190610ca2565b60405180910390a35050505050565b600160009054906101000a900473ffffffffffffffffffffffffffffffffffffffff1681565b600073ffffffffffffffffffffffffffffffffffffffff168273ffffffffffffffffffffffffffffffffffffffff1603610549576040517f08c379a000000000000000000000000000000000000000000000000000000000815260040161054090610f37565b60405180910390fd5b8173ffffffffffffffffffffffffffffffffffffffff166108fc829081150290604051600060405180830381858888f1935050505015801561058f573d6000803e3d6000fd5b505050565b60005481565b60006105a9338686858761030d565b90506002600082815260200190815260200160002060009054906101000a900460ff1661060b576040517f08c379a000000000000000000000000000000000000000000000000000000000815260040161060290610e39565b60405180910390fd5b3373ffffffffffffffffffffffffffffffffffffffff16817fcbe5e06e4b51bf92e6de8dff7a16a0ed35e3a44b9c8a7f3f8759b84a8771c10987878760405161065693929190610ca2565b60405180910390a360006064848661066e9190610f86565b854261067a9190610f86565b6106849190610fe9565b61068e919061101a565b9050600080549050600182116106a357603290505b6001821180156106b35750605b82105b156106e057600360968360016106c99190610f86565b6106d39190611074565b6106dd9190610fe9565b90505b6000606482896106f0919061101a565b6106fa9190610fe9565b9050610728600160009054906101000a900473ffffffffffffffffffffffffffffffffffffffff16826104da565b61073d33828a6107389190610f86565b6104da565b60006002600086815260200190815260200160002060006101000a81548160ff0219169083151502179055503373ffffffffffffffffffffffffffffffffffffffff16847fcbe5e06e4b51bf92e6de8dff7a16a0ed35e3a44b9c8a7f3f8759b84a8771c1098a8a8a6040516107b493929190610ca2565b60405180910390a35050505050505050565b6000604051905090565b600080fd5b600080fd5b6000819050919050565b6107ed816107da565b81146107f857600080fd5b50565b60008135905061080a816107e4565b92915050565b600080fd5b600080fd5b6000601f19601f8301169050919050565b7f4e487b7100000000000000000000000000000000000000000000000000000000600052604160045260246000fd5b6108638261081a565b810181811067ffffffffffffffff821117156108825761088161082b565b5b80604052505050565b60006108956107c6565b90506108a1828261085a565b919050565b600067ffffffffffffffff8211156108c1576108c061082b565b5b6108ca8261081a565b9050602081019050919050565b82818337600083830152505050565b60006108f96108f4846108a6565b61088b565b90508281526020810184848401111561091557610914610815565b5b6109208482856108d7565b509392505050565b600082601f83011261093d5761093c610810565b5b813561094d8482602086016108e6565b91505092915050565b600080600080608085870312156109705761096f6107d0565b5b600061097e878288016107fb565b945050602061098f878288016107fb565b93505060406109a0878288016107fb565b925050606085013567ffffffffffffffff8111156109c1576109c06107d5565b5b6109cd87828801610928565b91505092959194509250565b6000819050919050565b6109ec816109d9565b82525050565b6000602082019050610a0760008301846109e3565b92915050565b600073ffffffffffffffffffffffffffffffffffffffff82169050919050565b6000610a3882610a0d565b9050919050565b610a4881610a2d565b8114610a5357600080fd5b50565b600081359050610a6581610a3f565b92915050565b600080600080600060a08688031215610a8757610a866107d0565b5b6000610a9588828901610a56565b9550506020610aa6888289016107fb565b9450506040610ab7888289016107fb565b935050606086013567ffffffffffffffff811115610ad857610ad76107d5565b5b610ae488828901610928565b9250506080610af5888289016107fb565b9150509295509295909350565b610b0b816107da565b82525050565b6000602082019050610b266000830184610b02565b92915050565b610b35816109d9565b8114610b4057600080fd5b50565b600081359050610b5281610b2c565b92915050565b600060208284031215610b6e57610b6d6107d0565b5b6000610b7c84828501610b43565b91505092915050565b60008115159050919050565b610b9a81610b85565b82525050565b6000602082019050610bb56000830184610b91565b92915050565b610bc481610a2d565b82525050565b6000602082019050610bdf6000830184610bbb565b92915050565b60008060408385031215610bfc57610bfb6107d0565b5b6000610c0a85828601610a56565b9250506020610c1b858286016107fb565b9150509250929050565b600082825260208201905092915050565b7f4163657374206c6f636b206578697374612064656a6121210000000000000000600082015250565b6000610c6c601883610c25565b9150610c7782610c36565b602082019050919050565b60006020820190508181036000830152610c9b81610c5f565b9050919050565b6000606082019050610cb76000830186610b02565b610cc46020830185610b02565b610cd16040830184610b02565b949350505050565b600081519050919050565b60005b83811015610d02578082015181840152602081019050610ce7565b60008484015250505050565b6000610d1982610cd9565b610d238185610c25565b9350610d33818560208601610ce4565b610d3c8161081a565b840191505092915050565b600060a082019050610d5c6000830188610bbb565b610d696020830187610b02565b610d766040830186610b02565b8181036060830152610d888185610d0e565b9050610d976080830184610b02565b9695505050505050565b7f416365737461206e75206573746520756e206c6f636b2076616c69642120416460008201527f7265736120736175207061726f6c61206465206465626c6f63617265206e752060208201527f73756e7420636f72656374652100000000000000000000000000000000000000604082015250565b6000610e23604d83610c25565b9150610e2e82610da1565b606082019050919050565b60006020820190508181036000830152610e5281610e16565b9050919050565b7f506572696f6164612064652074696d70206e752061206578706972617420696e60008201527f636121204d616920747265627569652073612061737465707461746921000000602082015250565b6000610eb5603d83610c25565b9150610ec082610e59565b604082019050919050565b60006020820190508181036000830152610ee481610ea8565b9050919050565b7f4164726573612061636561737461206e75206578697374612121210000000000600082015250565b6000610f21601b83610c25565b9150610f2c82610eeb565b602082019050919050565b60006020820190508181036000830152610f5081610f14565b9050919050565b7f4e487b7100000000000000000000000000000000000000000000000000000000600052601160045260246000fd5b6000610f91826107da565b9150610f9c836107da565b9250828203905081811115610fb457610fb3610f57565b5b92915050565b7f4e487b7100000000000000000000000000000000000000000000000000000000600052601260045260246000fd5b6000610ff4826107da565b9150610fff836107da565b92508261100f5761100e610fba565b5b828204905092915050565b6000611025826107da565b9150611030836107da565b9250817fffffffffffffffffffffffffffffffffffffffffffffffffffffffffffffffff048311821515161561106957611068610f57565b5b828202905092915050565b600061107f826107da565b915061108a836107da565b92508282019050808211156110a2576110a1610f57565b5b9291505056fea2646970667358221220c371502561ec3e069bb0ab97a6cdea0e999e43a95fc028e8682a35f6b8808ad064736f6c63430008100033",
  "immutableReferences": {},
  "source": "//SPDX-License-Identifier:UNLICENSED\r\n\r\npragma solidity ^0.8.0;\r\n\r\nerror NotOwnerError();\r\nerror AlreadyQueuedError(bytes32 txId);\r\nerror TestError(bytes32 txId);\r\nerror NotQueuedError(bytes32 txId);\r\nerror TimestampNotPassedError(uint blockTimestmap, uint timestamp);\r\nerror TxFailedError();\r\nerror NoValidAddress(address _target);\r\n\r\ncontract TimeLock {\r\n    \r\n\r\n    event Queue(\r\n        bytes32 indexed txId,\r\n        address indexed target,\r\n        uint value,\r\n        uint timestamp,\r\n        uint start_timestamp\r\n        \r\n    );\r\n    event Execute(\r\n        bytes32 indexed txId,\r\n        address indexed target,\r\n        uint value,\r\n        uint timestamp,\r\n        uint start_timestamp\r\n    );\r\n\r\n    event Value(\r\n        uint256 val\r\n    );\r\n\r\n    event Cancel( \r\n        bytes32 indexed txId,\r\n        address indexed target,\r\n        uint value,\r\n        uint timestamp,\r\n        uint start_timestamp);\r\n\r\n    uint public MIN_COMMISION_RATE = 20; \r\n   \r\n    address public owner;\r\n    // tx id => queued\r\n    mapping(bytes32 => bool) public queued;\r\n\r\n    constructor() {\r\n        owner = msg.sender;\r\n    }\r\n\r\n    modifier onlyOwner() {\r\n        if (msg.sender != owner) {\r\n            revert NotOwnerError();\r\n        }\r\n        _;\r\n    }\r\n\r\n    receive() external payable {}\r\n\r\n    function getTxId(\r\n        address _target,\r\n        uint _value,\r\n        uint _timestamp,\r\n        string memory _passCode,\r\n        uint start_timestamp\r\n    ) public pure returns (bytes32) {\r\n        return keccak256(abi.encode(_target, _value, _timestamp, _passCode, start_timestamp));\r\n    }\r\n\r\n    /**\r\n     * @param _value Amount of ETH to send\r\n     * @param  _passCode Safety passCode to be able to unlock the funds\r\n     * @param _timestamp The timestamp moment after which the transaction can be executed.\r\n     * @param start_timestamp The moment of the lock\r\n     * @param _passCode A password for enhancing the security of the lock and that allows to unlock the money sooner\r\n\r\n     */\r\n    function queue(\r\n        uint _value,\r\n        uint _timestamp,\r\n        uint start_timestamp,\r\n        string memory _passCode\r\n    ) external payable  returns (bytes32 txId) {\r\n\r\n        txId = getTxId(msg.sender, _value, _timestamp, _passCode, start_timestamp);\r\n        if (queued[txId]) {\r\n            revert(\"Acest lock exista deja!!\");\r\n        }\r\n\r\n        queued[txId] = true;\r\n\r\n        emit Queue(txId, msg.sender, _value, _timestamp, start_timestamp);\r\n    }\r\n\r\n    function transferFunds(\r\n        address _target,\r\n        uint _value\r\n    ) public payable {\r\n\r\n        if(_target == address(0)){\r\n            revert(\"Adresa aceasta nu exista!!!\");\r\n        }\r\n\r\n        payable(_target).transfer(_value);\r\n\r\n    }\r\n\r\n    function execute(\r\n        uint _value,\r\n        uint _timestamp,\r\n        uint start_timestamp,\r\n        string memory _passCode\r\n    ) external payable  {\r\n        bytes32 txId = getTxId(msg.sender, _value, _timestamp, _passCode, start_timestamp);\r\n\r\n\r\n        if (!queued[txId]) {\r\n            revert(\"Acesta nu este un lock valid! Adresa sau parola de deblocare nu sunt corecte!\");\r\n        }\r\n\r\n        if(block.timestamp <= _timestamp){\r\n            revert(\"Perioada de timp nu a expirat inca! Mai trebuie sa asteptati!\");\r\n        }\r\n\r\n        queued[txId] = false;\r\n        //Eliberam memoria pentru a nu creste costul executiei unei functii\r\n\r\n        //payable(msg.sender).transfer(_value);\r\n        transferFunds(msg.sender, _value);\r\n\r\n        emit Execute(txId, msg.sender, _value, _timestamp, start_timestamp);\r\n\r\n    }\r\n\r\n    function cancel(\r\n        uint _value,\r\n        uint _timestamp,\r\n        uint start_timestamp,\r\n        string memory _passCode\r\n    ) external payable {\r\n        bytes32 txId = getTxId(msg.sender, _value, _timestamp, _passCode, start_timestamp);\r\n\r\n        if (!queued[txId]) {\r\n            revert(\"Acesta nu este un lock valid! Adresa sau parola de deblocare nu sunt corecte!\");\r\n        }\r\n        emit Cancel(txId, msg.sender, _value, _timestamp, start_timestamp);\r\n        //Calculam cat la suta din timpul total reprezinta timpul scurs pana la operatia de cancel\r\n        uint x = ((block.timestamp - start_timestamp) / (_timestamp - start_timestamp)) * 100;\r\n        //Valoare minima a comisionului\r\n        uint commision = MIN_COMMISION_RATE;\r\n        \r\n        //Daca nu a trecut nici macar 1% din timpul stabilit se ia comisionul maxim adica 50%\r\n        if(x <= 1){\r\n            commision = 50;\r\n        }\r\n\r\n        //Comision inmtre 1% si 91% variaza liniar\r\n        if(x > 1 && x < 91){\r\n            commision = (1-x + 150) /3; \r\n        }\r\n\r\n        uint commision_val = (_value * commision) / 100;\r\n\r\n        //O parte din valoarea blocata revine owner-ului contractului\r\n        transferFunds(owner, commision_val);\r\n        //payable(owner).transfer(commision_val);\r\n\r\n        //Ce ramane i se restituie celui care a facut lock-ul\r\n        transferFunds(msg.sender, _value - commision_val);\r\n        //payable(msg.sender).transfer(_value - commision_val);\r\n        \r\n\r\n        queued[txId] = false;\r\n\r\n        //delete queued[txId];\r\n        \r\n        emit Cancel(txId, msg.sender, _value, _timestamp, start_timestamp);\r\n    }\r\n\r\n    function getTimestamp() external view returns (uint){\r\n        \r\n        return block.timestamp;\r\n\r\n    }\r\n}\r\n\r\n",
  "sourcePath": "C:\\Users\\vlad.pislaru\\Desktop\\Master_I_1\\Foundation-Of-Blockchains\\Project\\Time-Locked-Wallet\\time-locked-wallet\\server\\contracts\\TimeLock.sol",
  "compiler": {
    "name": "solc",
    "version": "0.8.16+commit.07a7930e.Emscripten.clang"
  },
  "schemaVersion": "3.4.11",
  "updatedAt": "2023-01-17T18:24:26.871Z",
  "networkType": "ethereum",
  "devdoc": {
    "kind": "dev",
    "methods": {
      "queue(uint256,uint256,uint256,string)": {
        "params": {
          "_passCode": "A password for enhancing the security of the lock and that allows to unlock the money sooner",
          "_timestamp": "The timestamp moment after which the transaction can be executed.",
          "_value": "Amount of ETH to send",
          "start_timestamp": "The moment of the lock"
        }
      }
    },
    "version": 1
  },
  "userdoc": {
    "kind": "user",
    "methods": {},
    "version": 1
  }
}