{
  "contractName": "TimeLockedWalletFactory",
  "abi": [
    {
      "anonymous": false,
      "inputs": [
        {
          "indexed": false,
          "internalType": "address",
          "name": "wallet",
          "type": "address"
        },
        {
          "indexed": false,
          "internalType": "address",
          "name": "from",
          "type": "address"
        },
        {
          "indexed": false,
          "internalType": "address",
          "name": "to",
          "type": "address"
        },
        {
          "indexed": false,
          "internalType": "uint256",
          "name": "createdAt",
          "type": "uint256"
        },
        {
          "indexed": false,
          "internalType": "uint256",
          "name": "unlockDate",
          "type": "uint256"
        },
        {
          "indexed": false,
          "internalType": "uint256",
          "name": "amount",
          "type": "uint256"
        }
      ],
      "name": "Created",
      "type": "event"
    },
    {
      "inputs": [
        {
          "internalType": "address",
          "name": "_user",
          "type": "address"
        }
      ],
      "name": "getWallets",
      "outputs": [
        {
          "internalType": "address[]",
          "name": "",
          "type": "address[]"
        }
      ],
      "stateMutability": "view",
      "type": "function"
    },
    {
      "inputs": [
        {
          "internalType": "address",
          "name": "_owner",
          "type": "address"
        },
        {
          "internalType": "uint256",
          "name": "_unlockDate",
          "type": "uint256"
        }
      ],
      "name": "newTimeLockedWallet",
      "outputs": [
        {
          "internalType": "contract TimeLockedWallet",
          "name": "wallet",
          "type": "address"
        }
      ],
      "stateMutability": "payable",
      "type": "function"
    },
    {
      "inputs": [],
      "name": "Prevent",
      "outputs": [],
      "stateMutability": "pure",
      "type": "function"
    }
  ],
  "bytecode": "0x608060405234801561001057600080fd5b506110cf806100206000396000f3fe6080604052600436106100345760003560e01c80630a9ef92714610039578063422c29a414610069578063823af7bd146100a6575b600080fd5b610053600480360381019061004e9190610470565b6100bd565b604051610060919061050f565b60405180910390f35b34801561007557600080fd5b50610090600480360381019061008b919061052a565b6102f9565b60405161009d9190610615565b60405180910390f35b3480156100b257600080fd5b506100bb6103c5565b005b60003383836040516100ce906103ca565b6100da93929190610655565b604051809103906000f0801580156100f6573d6000803e3d6000fd5b5090506000803373ffffffffffffffffffffffffffffffffffffffff1673ffffffffffffffffffffffffffffffffffffffff168152602001908152602001600020819080600181540180825580915050600190039060005260206000200160009091909190916101000a81548173ffffffffffffffffffffffffffffffffffffffff021916908373ffffffffffffffffffffffffffffffffffffffff1602179055508273ffffffffffffffffffffffffffffffffffffffff163373ffffffffffffffffffffffffffffffffffffffff161461026b576000808473ffffffffffffffffffffffffffffffffffffffff1673ffffffffffffffffffffffffffffffffffffffff168152602001908152602001600020819080600181540180825580915050600190039060005260206000200160009091909190916101000a81548173ffffffffffffffffffffffffffffffffffffffff021916908373ffffffffffffffffffffffffffffffffffffffff1602179055505b8073ffffffffffffffffffffffffffffffffffffffff166108fc349081150290604051600060405180830381858888f193505050501580156102b1573d6000803e3d6000fd5b507f14d5db8c1f746c7adcbcd13cf8945dd2ac6ad58be52380b8c4933c876f76e1bf8133854286346040516102eb9695949392919061068c565b60405180910390a192915050565b60606000808373ffffffffffffffffffffffffffffffffffffffff1673ffffffffffffffffffffffffffffffffffffffff1681526020019081526020016000208054806020026020016040519081016040528092919081815260200182805480156103b957602002820191906000526020600020905b8160009054906101000a900473ffffffffffffffffffffffffffffffffffffffff1673ffffffffffffffffffffffffffffffffffffffff168152602001906001019080831161036f575b50505050509050919050565b600080fd5b6109ac806106ee83390190565b600080fd5b600073ffffffffffffffffffffffffffffffffffffffff82169050919050565b6000610407826103dc565b9050919050565b610417816103fc565b811461042257600080fd5b50565b6000813590506104348161040e565b92915050565b6000819050919050565b61044d8161043a565b811461045857600080fd5b50565b60008135905061046a81610444565b92915050565b60008060408385031215610487576104866103d7565b5b600061049585828601610425565b92505060206104a68582860161045b565b9150509250929050565b6000819050919050565b60006104d56104d06104cb846103dc565b6104b0565b6103dc565b9050919050565b60006104e7826104ba565b9050919050565b60006104f9826104dc565b9050919050565b610509816104ee565b82525050565b60006020820190506105246000830184610500565b92915050565b6000602082840312156105405761053f6103d7565b5b600061054e84828501610425565b91505092915050565b600081519050919050565b600082825260208201905092915050565b6000819050602082019050919050565b61058c816103fc565b82525050565b600061059e8383610583565b60208301905092915050565b6000602082019050919050565b60006105c282610557565b6105cc8185610562565b93506105d783610573565b8060005b838110156106085781516105ef8882610592565b97506105fa836105aa565b9250506001810190506105db565b5085935050505092915050565b6000602082019050818103600083015261062f81846105b7565b905092915050565b610640816103fc565b82525050565b61064f8161043a565b82525050565b600060608201905061066a6000830186610637565b6106776020830185610637565b6106846040830184610646565b949350505050565b600060c0820190506106a16000830189610637565b6106ae6020830188610637565b6106bb6040830187610637565b6106c86060830186610646565b6106d56080830185610646565b6106e260a0830184610646565b97965050505050505056fe608060405234801561001057600080fd5b506040516109ac3803806109ac83398181016040528101906100329190610162565b826000806101000a81548173ffffffffffffffffffffffffffffffffffffffff021916908373ffffffffffffffffffffffffffffffffffffffff16021790555081600160006101000a81548173ffffffffffffffffffffffffffffffffffffffff021916908373ffffffffffffffffffffffffffffffffffffffff16021790555080600281905550426003819055505050506101b5565b600080fd5b600073ffffffffffffffffffffffffffffffffffffffff82169050919050565b60006100f9826100ce565b9050919050565b610109816100ee565b811461011457600080fd5b50565b60008151905061012681610100565b92915050565b6000819050919050565b61013f8161012c565b811461014a57600080fd5b50565b60008151905061015c81610136565b92915050565b60008060006060848603121561017b5761017a6100c9565b5b600061018986828701610117565b935050602061019a86828701610117565b92505060406101ab8682870161014d565b9150509250925092565b6107e8806101c46000396000f3fe60806040526004361061007b5760003560e01c806349df728c1161004e57806349df728c146100fb57806369ac5721146101245780638da5cb5b1461014f578063cf09e0d01461017a5761007b565b806302d05d3f1461008057806329a71964146100ab578063370158ea146100b55780633ccfd60b146100e4575b600080fd5b34801561008c57600080fd5b506100956101a5565b6040516100a29190610594565b60405180910390f35b6100b36101c9565b005b3480156100c157600080fd5b506100ca610204565b6040516100db9594939291906105c8565b60405180910390f35b3480156100f057600080fd5b506100f9610269565b005b34801561010757600080fd5b50610122600480360381019061011d919061064c565b610354565b005b34801561013057600080fd5b50610139610521565b6040516101469190610679565b60405180910390f35b34801561015b57600080fd5b50610164610527565b6040516101719190610594565b60405180910390f35b34801561018657600080fd5b5061018f61054d565b60405161019c9190610679565b60405180910390f35b60008054906101000a900473ffffffffffffffffffffffffffffffffffffffff1681565b7f88a5966d370b9919b20f3e2c13ff65706f196a4e32cc2c12bf57088f8852587433346040516101fa929190610694565b60405180910390a1565b60008060008060008060009054906101000a900473ffffffffffffffffffffffffffffffffffffffff16600160009054906101000a900473ffffffffffffffffffffffffffffffffffffffff1660025460035447945094509450945094509091929394565b600160009054906101000a900473ffffffffffffffffffffffffffffffffffffffff1673ffffffffffffffffffffffffffffffffffffffff163373ffffffffffffffffffffffffffffffffffffffff16146102c357600080fd5b6002544210156102d257600080fd5b3373ffffffffffffffffffffffffffffffffffffffff166108fc479081150290604051600060405180830381858888f19350505050158015610318573d6000803e3d6000fd5b507fb244b9a17ad633c6e83b7983ee04320484956a68ddbe96a0b70dfca1cf19d723334760405161034a929190610694565b60405180910390a1565b600160009054906101000a900473ffffffffffffffffffffffffffffffffffffffff1673ffffffffffffffffffffffffffffffffffffffff163373ffffffffffffffffffffffffffffffffffffffff16146103ae57600080fd5b6002544210156103bd57600080fd5b600081905060008173ffffffffffffffffffffffffffffffffffffffff166370a08231306040518263ffffffff1660e01b81526004016103fd9190610594565b602060405180830381865afa15801561041a573d6000803e3d6000fd5b505050506040513d601f19601f8201168201806040525081019061043e91906106e9565b90508173ffffffffffffffffffffffffffffffffffffffff1663a9059cbb600160009054906101000a900473ffffffffffffffffffffffffffffffffffffffff16836040518363ffffffff1660e01b815260040161049d929190610694565b6020604051808303816000875af11580156104bc573d6000803e3d6000fd5b505050506040513d601f19601f820116820180604052508101906104e0919061074e565b507fa04c965e7d289704527a948915777d68bb4530fb4b08aa935fb958c0b7901ab98333836040516105149392919061077b565b60405180910390a1505050565b60025481565b600160009054906101000a900473ffffffffffffffffffffffffffffffffffffffff1681565b60035481565b600073ffffffffffffffffffffffffffffffffffffffff82169050919050565b600061057e82610553565b9050919050565b61058e81610573565b82525050565b60006020820190506105a96000830184610585565b92915050565b6000819050919050565b6105c2816105af565b82525050565b600060a0820190506105dd6000830188610585565b6105ea6020830187610585565b6105f760408301866105b9565b61060460608301856105b9565b61061160808301846105b9565b9695505050505050565b600080fd5b61062981610573565b811461063457600080fd5b50565b60008135905061064681610620565b92915050565b6000602082840312156106625761066161061b565b5b600061067084828501610637565b91505092915050565b600060208201905061068e60008301846105b9565b92915050565b60006040820190506106a96000830185610585565b6106b660208301846105b9565b9392505050565b6106c6816105af565b81146106d157600080fd5b50565b6000815190506106e3816106bd565b92915050565b6000602082840312156106ff576106fe61061b565b5b600061070d848285016106d4565b91505092915050565b60008115159050919050565b61072b81610716565b811461073657600080fd5b50565b60008151905061074881610722565b92915050565b6000602082840312156107645761076361061b565b5b600061077284828501610739565b91505092915050565b60006060820190506107906000830186610585565b61079d6020830185610585565b6107aa60408301846105b9565b94935050505056fea264697066735822122096fed6f9d6fb567941057fc3a1a60e2136d4d427ab518e4f808d685a4a14dc5d64736f6c63430008110033a26469706673582212208def4996ebbf5f97113e0f1eaadb858777bcac0c54b58522ecb21f0a51d5b1ca64736f6c63430008110033",
  "immutableReferences": {},
  "source": "//SPDX-License-Identifier: UNLICENSED\r\npragma solidity ^0.8.0;\r\n\r\nimport \"./TimeLockedWallet.sol\";\r\n\r\ncontract TimeLockedWalletFactory {\r\n \r\n    mapping(address => address[]) wallets;\r\n\r\n    function getWallets(address _user) \r\n        public\r\n        view\r\n        returns(address[] memory)\r\n    {\r\n        return wallets[_user];\r\n    }\r\n\r\n    function newTimeLockedWallet(address _owner, uint256 _unlockDate)\r\n        payable\r\n        public\r\n        returns(TimeLockedWallet  wallet)\r\n    {\r\n        // Create new wallet.\r\n        wallet = new TimeLockedWallet(msg.sender, _owner, _unlockDate);\r\n        \r\n        // Add wallet to sender's wallets.\r\n       \r\n        wallets[msg.sender].push(address(wallet));\r\n\r\n        // If owner is the same as sender then add wallet to sender's wallets too.\r\n        if(msg.sender != _owner){\r\n            wallets[_owner].push(address(wallet));\r\n        }\r\n\r\n        // Send ether from this transaction to the created contract.\r\n        payable(address(wallet)).transfer(msg.value);\r\n\r\n        // Emit event.\r\n        emit Created(address(wallet), msg.sender, _owner, block.timestamp, _unlockDate, msg.value);\r\n    }\r\n\r\n    // Prevents accidental sending of ether to the factory\r\n    function Prevent() public pure {\r\n        revert();\r\n    }\r\n\r\n    event Created(address wallet, address from, address to, uint256 createdAt, uint256 unlockDate, uint256 amount);\r\n}\r\n",
  "sourcePath": "C:\\Users\\vlad.pislaru\\Desktop\\Master_I_1\\Foundation-Of-Blockchains\\Project\\Time-Locked-Wallet\\time-locked-wallet\\server\\contracts\\TimeLockedWalletFactory.sol",
  "compiler": {
    "name": "solc",
    "version": "0.8.17+commit.8df45f5f.Emscripten.clang"
  },
  "schemaVersion": "3.4.11",
  "updatedAt": "2022-12-29T16:48:21.639Z",
  "devdoc": {
    "kind": "dev",
    "methods": {},
    "version": 1
  },
  "userdoc": {
    "kind": "user",
    "methods": {},
    "version": 1
  }
}