{
  "contractName": "TimeLock",
  "abi": [
    {
      "inputs": [],
      "stateMutability": "nonpayable",
      "type": "constructor"
    },
    {
      "inputs": [
        {
          "internalType": "address",
          "name": "_target",
          "type": "address"
        }
      ],
      "name": "NoValidAddress",
      "type": "error"
    },
    {
      "inputs": [
        {
          "internalType": "bytes32",
          "name": "txId",
          "type": "bytes32"
        }
      ],
      "name": "NotQueuedError",
      "type": "error"
    },
    {
      "anonymous": false,
      "inputs": [
        {
          "indexed": true,
          "internalType": "bytes32",
          "name": "txId",
          "type": "bytes32"
        }
      ],
      "name": "Cancel",
      "type": "event"
    },
    {
      "anonymous": false,
      "inputs": [
        {
          "indexed": true,
          "internalType": "bytes32",
          "name": "txId",
          "type": "bytes32"
        },
        {
          "indexed": true,
          "internalType": "address",
          "name": "target",
          "type": "address"
        },
        {
          "indexed": false,
          "internalType": "uint256",
          "name": "value",
          "type": "uint256"
        },
        {
          "indexed": false,
          "internalType": "uint256",
          "name": "timestamp",
          "type": "uint256"
        },
        {
          "indexed": false,
          "internalType": "uint256",
          "name": "start_timestamp",
          "type": "uint256"
        }
      ],
      "name": "Execute",
      "type": "event"
    },
    {
      "anonymous": false,
      "inputs": [
        {
          "indexed": true,
          "internalType": "bytes32",
          "name": "txId",
          "type": "bytes32"
        },
        {
          "indexed": true,
          "internalType": "address",
          "name": "target",
          "type": "address"
        },
        {
          "indexed": false,
          "internalType": "uint256",
          "name": "value",
          "type": "uint256"
        },
        {
          "indexed": false,
          "internalType": "uint256",
          "name": "timestamp",
          "type": "uint256"
        },
        {
          "indexed": false,
          "internalType": "uint256",
          "name": "start_timestamp",
          "type": "uint256"
        }
      ],
      "name": "Queue",
      "type": "event"
    },
    {
      "anonymous": false,
      "inputs": [
        {
          "indexed": false,
          "internalType": "uint256",
          "name": "val",
          "type": "uint256"
        }
      ],
      "name": "Value",
      "type": "event"
    },
    {
      "inputs": [],
      "name": "COMMISION_RATE",
      "outputs": [
        {
          "internalType": "uint256",
          "name": "",
          "type": "uint256"
        }
      ],
      "stateMutability": "view",
      "type": "function",
      "constant": true
    },
    {
      "inputs": [],
      "name": "owner",
      "outputs": [
        {
          "internalType": "address",
          "name": "",
          "type": "address"
        }
      ],
      "stateMutability": "view",
      "type": "function",
      "constant": true
    },
    {
      "inputs": [
        {
          "internalType": "bytes32",
          "name": "",
          "type": "bytes32"
        }
      ],
      "name": "queued",
      "outputs": [
        {
          "internalType": "bool",
          "name": "",
          "type": "bool"
        }
      ],
      "stateMutability": "view",
      "type": "function",
      "constant": true
    },
    {
      "stateMutability": "payable",
      "type": "receive",
      "payable": true
    },
    {
      "inputs": [
        {
          "internalType": "address",
          "name": "_target",
          "type": "address"
        },
        {
          "internalType": "uint256",
          "name": "_value",
          "type": "uint256"
        },
        {
          "internalType": "uint256",
          "name": "_timestamp",
          "type": "uint256"
        },
        {
          "internalType": "string",
          "name": "_passCode",
          "type": "string"
        },
        {
          "internalType": "uint256",
          "name": "start_timestamp",
          "type": "uint256"
        }
      ],
      "name": "getTxId",
      "outputs": [
        {
          "internalType": "bytes32",
          "name": "",
          "type": "bytes32"
        }
      ],
      "stateMutability": "pure",
      "type": "function",
      "constant": true
    },
    {
      "inputs": [
        {
          "internalType": "uint256",
          "name": "_value",
          "type": "uint256"
        },
        {
          "internalType": "uint256",
          "name": "_timestamp",
          "type": "uint256"
        },
        {
          "internalType": "uint256",
          "name": "start_timestamp",
          "type": "uint256"
        },
        {
          "internalType": "string",
          "name": "_passCode",
          "type": "string"
        }
      ],
      "name": "queue",
      "outputs": [
        {
          "internalType": "bytes32",
          "name": "txId",
          "type": "bytes32"
        }
      ],
      "stateMutability": "payable",
      "type": "function",
      "payable": true
    },
    {
      "inputs": [
        {
          "internalType": "address",
          "name": "_target",
          "type": "address"
        }
      ],
      "name": "transferFunds",
      "outputs": [
        {
          "internalType": "bool",
          "name": "",
          "type": "bool"
        }
      ],
      "stateMutability": "payable",
      "type": "function",
      "payable": true
    },
    {
      "inputs": [
        {
          "internalType": "uint256",
          "name": "_value",
          "type": "uint256"
        },
        {
          "internalType": "uint256",
          "name": "_timestamp",
          "type": "uint256"
        },
        {
          "internalType": "uint256",
          "name": "start_timestamp",
          "type": "uint256"
        },
        {
          "internalType": "string",
          "name": "_passCode",
          "type": "string"
        }
      ],
      "name": "execute",
      "outputs": [],
      "stateMutability": "payable",
      "type": "function",
      "payable": true
    },
    {
      "inputs": [
        {
          "internalType": "bytes32",
          "name": "_txId",
          "type": "bytes32"
        }
      ],
      "name": "cancel",
      "outputs": [],
      "stateMutability": "nonpayable",
      "type": "function"
    },
    {
      "inputs": [],
      "name": "getTimestamp",
      "outputs": [
        {
          "internalType": "uint256",
          "name": "",
          "type": "uint256"
        }
      ],
      "stateMutability": "view",
      "type": "function",
      "constant": true
    }
  ],
  "bytecode": "0x608060405234801561001057600080fd5b5033600160006101000a81548173ffffffffffffffffffffffffffffffffffffffff021916908373ffffffffffffffffffffffffffffffffffffffff16021790555061102f806100616000396000f3fe6080604052600436106100895760003560e01c806333f56d321161005957806333f56d321461016a5780635d987275146101955780638da5cb5b146101b1578063c4d252f5146101dc578063e39ff19f1461020557610090565b8062cf3bb914610095578063042a7d77146100c5578063188ec35614610102578063228250c91461012d57610090565b3661009057005b600080fd5b6100af60048036038101906100aa9190610973565b610235565b6040516100bc9190610a0f565b60405180910390f35b3480156100d157600080fd5b506100ec60048036038101906100e79190610a88565b61038e565b6040516100f99190610a0f565b60405180910390f35b34801561010e57600080fd5b506101176103ca565b6040516101249190610b2e565b60405180910390f35b34801561013957600080fd5b50610154600480360381019061014f9190610b75565b6103d2565b6040516101619190610bbd565b60405180910390f35b34801561017657600080fd5b5061017f6103f2565b60405161018c9190610b2e565b60405180910390f35b6101af60048036038101906101aa9190610973565b6103f7565b005b3480156101bd57600080fd5b506101c661063d565b6040516101d39190610be7565b60405180910390f35b3480156101e857600080fd5b5061020360048036038101906101fe9190610b75565b610663565b005b61021f600480360381019061021a9190610c02565b610721565b60405161022c9190610bbd565b60405180910390f35b6000610244338686858761038e565b90506002600082815260200190815260200160002060009054906101000a900460ff16156102a7576040517f08c379a000000000000000000000000000000000000000000000000000000000815260040161029e90610c8c565b60405180910390fd5b60016002600083815260200190815260200160002060006101000a81548160ff02191690831515021790555060008060003373ffffffffffffffffffffffffffffffffffffffff1673ffffffffffffffffffffffffffffffffffffffff168152602001908152602001600020905084426103219190610cdb565b81600001819055503481600101819055503373ffffffffffffffffffffffffffffffffffffffff16827f9fbdb229fa51b3e2ef3410ecf40620ab19c7e9b3f0fc44177fc373078f22092888888860405161037d93929190610d0f565b60405180910390a350949350505050565b600085858585856040516020016103a9959493929190610db4565b60405160208183030381529060405280519060200120905095945050505050565b600042905090565b60026020528060005260406000206000915054906101000a900460ff1681565b600a81565b6000610406338686858761038e565b90506002600082815260200190815260200160002060009054906101000a900460ff16610468576040517f08c379a000000000000000000000000000000000000000000000000000000000815260040161045f90610ea6565b60405180910390fd5b83421161050f576040518060600160405280603d8152602001610fbd603d913984426104949190610ec6565b6040516020016104a49190610b2e565b6040516020818303038152906040526040516020016104c4929190610f67565b6040516020818303038152906040526040517f08c379a00000000000000000000000000000000000000000000000000000000081526004016105069190610f9a565b60405180910390fd5b60008060003373ffffffffffffffffffffffffffffffffffffffff1673ffffffffffffffffffffffffffffffffffffffff1681526020019081526020016000209050600081600101549050600082600001819055506000826001018190555060006002600085815260200190815260200160002060006101000a81548160ff0219169083151502179055503373ffffffffffffffffffffffffffffffffffffffff166108fc829081150290604051600060405180830381858888f193505050501580156105e0573d6000803e3d6000fd5b503373ffffffffffffffffffffffffffffffffffffffff16837f64258e87522d2a5524567cc4d1b072258509892afb5112a13f26c0f85deb68d289898960405161062c93929190610d0f565b60405180910390a350505050505050565b600160009054906101000a900473ffffffffffffffffffffffffffffffffffffffff1681565b6002600082815260200190815260200160002060009054906101000a900460ff166106c557806040517f0995c9d50000000000000000000000000000000000000000000000000000000081526004016106bc9190610a0f565b60405180910390fd5b60006002600083815260200190815260200160002060006101000a81548160ff021916908315150217905550807fe8d9861dbc9c663ed3accd261bbe2fe01e0d3d9e5f51fa38523b265c7757a93a60405160405180910390a250565b60008073ffffffffffffffffffffffffffffffffffffffff168273ffffffffffffffffffffffffffffffffffffffff160361079357816040517f965cd65e00000000000000000000000000000000000000000000000000000000815260040161078a9190610be7565b60405180910390fd5b8173ffffffffffffffffffffffffffffffffffffffff166108fc349081150290604051600060405180830381858888f193505050501580156107d9573d6000803e3d6000fd5b5060019050919050565b6000604051905090565b600080fd5b600080fd5b6000819050919050565b61080a816107f7565b811461081557600080fd5b50565b60008135905061082781610801565b92915050565b600080fd5b600080fd5b6000601f19601f8301169050919050565b7f4e487b7100000000000000000000000000000000000000000000000000000000600052604160045260246000fd5b61088082610837565b810181811067ffffffffffffffff8211171561089f5761089e610848565b5b80604052505050565b60006108b26107e3565b90506108be8282610877565b919050565b600067ffffffffffffffff8211156108de576108dd610848565b5b6108e782610837565b9050602081019050919050565b82818337600083830152505050565b6000610916610911846108c3565b6108a8565b90508281526020810184848401111561093257610931610832565b5b61093d8482856108f4565b509392505050565b600082601f83011261095a5761095961082d565b5b813561096a848260208601610903565b91505092915050565b6000806000806080858703121561098d5761098c6107ed565b5b600061099b87828801610818565b94505060206109ac87828801610818565b93505060406109bd87828801610818565b925050606085013567ffffffffffffffff8111156109de576109dd6107f2565b5b6109ea87828801610945565b91505092959194509250565b6000819050919050565b610a09816109f6565b82525050565b6000602082019050610a246000830184610a00565b92915050565b600073ffffffffffffffffffffffffffffffffffffffff82169050919050565b6000610a5582610a2a565b9050919050565b610a6581610a4a565b8114610a7057600080fd5b50565b600081359050610a8281610a5c565b92915050565b600080600080600060a08688031215610aa457610aa36107ed565b5b6000610ab288828901610a73565b9550506020610ac388828901610818565b9450506040610ad488828901610818565b935050606086013567ffffffffffffffff811115610af557610af46107f2565b5b610b0188828901610945565b9250506080610b1288828901610818565b9150509295509295909350565b610b28816107f7565b82525050565b6000602082019050610b436000830184610b1f565b92915050565b610b52816109f6565b8114610b5d57600080fd5b50565b600081359050610b6f81610b49565b92915050565b600060208284031215610b8b57610b8a6107ed565b5b6000610b9984828501610b60565b91505092915050565b60008115159050919050565b610bb781610ba2565b82525050565b6000602082019050610bd26000830184610bae565b92915050565b610be181610a4a565b82525050565b6000602082019050610bfc6000830184610bd8565b92915050565b600060208284031215610c1857610c176107ed565b5b6000610c2684828501610a73565b91505092915050565b600082825260208201905092915050565b7f4163657374206c6f636b206578697374612064656a6121210000000000000000600082015250565b6000610c76601883610c2f565b9150610c8182610c40565b602082019050919050565b60006020820190508181036000830152610ca581610c69565b9050919050565b7f4e487b7100000000000000000000000000000000000000000000000000000000600052601160045260246000fd5b6000610ce6826107f7565b9150610cf1836107f7565b9250828201905080821115610d0957610d08610cac565b5b92915050565b6000606082019050610d246000830186610b1f565b610d316020830185610b1f565b610d3e6040830184610b1f565b949350505050565b600081519050919050565b60005b83811015610d6f578082015181840152602081019050610d54565b60008484015250505050565b6000610d8682610d46565b610d908185610c2f565b9350610da0818560208601610d51565b610da981610837565b840191505092915050565b600060a082019050610dc96000830188610bd8565b610dd66020830187610b1f565b610de36040830186610b1f565b8181036060830152610df58185610d7b565b9050610e046080830184610b1f565b9695505050505050565b7f416365737461206e75206573746520756e206c6f636b2076616c69642120416460008201527f7265736120736175207061726f6c61206465206465626c6f63617265206e752060208201527f73756e7420636f72656374652100000000000000000000000000000000000000604082015250565b6000610e90604d83610c2f565b9150610e9b82610e0e565b606082019050919050565b60006020820190508181036000830152610ebf81610e83565b9050919050565b6000610ed1826107f7565b9150610edc836107f7565b9250828203905081811115610ef457610ef3610cac565b5b92915050565b600081519050919050565b600081905092915050565b6000610f1b82610efa565b610f258185610f05565b9350610f35818560208601610d51565b80840191505092915050565b7f2d00000000000000000000000000000000000000000000000000000000000000815250565b6000610f738285610f10565b9150610f7e82610f41565b600182019150610f8e8284610f10565b91508190509392505050565b60006020820190508181036000830152610fb48184610d7b565b90509291505056fe506572696f6164612064652074696d70206e752061206578706972617420696e636121204d616920747265627569652073612061737465707461746921a264697066735822122059849e8ddbd5ad360a75bac8f71348f3c0a088d0a30d06f1488b20640c69e71664736f6c63430008100033",
  "immutableReferences": {},
  "source": "//SPDX-License-Identifier:UNLICENSED\r\n\r\npragma solidity ^0.8.0;\r\n\r\nerror NotOwnerError();\r\nerror AlreadyQueuedError(bytes32 txId);\r\nerror TestError(bytes32 txId);\r\nerror TimestampNotInRangeError(uint blockTimestamp, uint timestamp);\r\nerror NotQueuedError(bytes32 txId);\r\nerror TimestampNotPassedError(uint blockTimestmap, uint timestamp);\r\nerror TimestampExpiredError(uint blockTimestamp, uint expiresAt);\r\nerror TxFailedError();\r\nerror NoValidAddress(address _target);\r\n\r\ncontract TimeLock {\r\n    \r\n\r\n    event Queue(\r\n        bytes32 indexed txId,\r\n        address indexed target,\r\n        uint value,\r\n        uint timestamp,\r\n        uint start_timestamp\r\n        \r\n    );\r\n    event Execute(\r\n        bytes32 indexed txId,\r\n        address indexed target,\r\n        uint value,\r\n        uint timestamp,\r\n        uint start_timestamp\r\n    );\r\n\r\n    event Value(\r\n        uint256 val\r\n    );\r\n\r\n    event Cancel(bytes32 indexed txId);\r\n\r\n    uint public constant COMMISION_RATE = 10; // seconds\r\n   \r\n\r\n    struct locked{\r\n            uint256 expire;\r\n            uint256 amount;\r\n        }\r\n\r\n    mapping(address => locked) users;\r\n\r\n    address public owner;\r\n    // tx id => queued\r\n    mapping(bytes32 => bool) public queued;\r\n\r\n    constructor() {\r\n        owner = msg.sender;\r\n    }\r\n\r\n    modifier onlyOwner() {\r\n        if (msg.sender != owner) {\r\n            revert NotOwnerError();\r\n        }\r\n        _;\r\n    }\r\n\r\n    receive() external payable {}\r\n\r\n    function getTxId(\r\n        address _target,\r\n        uint _value,\r\n        uint _timestamp,\r\n        string memory _passCode,\r\n        uint start_timestamp\r\n    ) public pure returns (bytes32) {\r\n        return keccak256(abi.encode(_target, _value, _timestamp, _passCode, start_timestamp));\r\n    }\r\n\r\n    /**\r\n     * @param _value Amount of ETH to send\r\n     * @param  _passCode Safety passCode to be able to unlock the funds\r\n     * @param _timestamp The timestamp moment after which the transaction can be executed.\r\n     * @param start_timestamp The moment of the lock\r\n     * @param _passCode A password for enhancing the security of the lock and that allows to unlock the money sooner\r\n\r\n     */\r\n    function queue(\r\n        uint _value,\r\n        uint _timestamp,\r\n        uint start_timestamp,\r\n        string memory _passCode\r\n    ) external payable  returns (bytes32 txId) {\r\n\r\n        txId = getTxId(msg.sender, _value, _timestamp, _passCode, start_timestamp);\r\n        if (queued[txId]) {\r\n            revert(\"Acest lock exista deja!!\");\r\n        }\r\n\r\n        queued[txId] = true;\r\n\r\n        locked storage userInfo = users[msg.sender];\r\n        userInfo.expire = block.timestamp + _timestamp;\r\n        userInfo.amount = msg.value;\r\n\r\n        emit Queue(txId, msg.sender, _value, _timestamp, start_timestamp);\r\n    }\r\n\r\n    function transferFunds(\r\n        address _target\r\n    ) public payable returns(bool) {\r\n        //revert NoValidAddress(_target);\r\n\r\n        if(_target == address(0)){\r\n            revert NoValidAddress(_target);\r\n        }\r\n\r\n        payable(_target).transfer(msg.value);\r\n\r\n        return true;\r\n    }\r\n\r\n    function execute(\r\n        uint _value,\r\n        uint _timestamp,\r\n        uint start_timestamp,\r\n        string memory _passCode\r\n    ) external payable  {\r\n        bytes32 txId = getTxId(msg.sender, _value, _timestamp, _passCode, start_timestamp);\r\n\r\n\r\n        if (!queued[txId]) {\r\n            revert(\"Acesta nu este un lock valid! Adresa sau parola de deblocare nu sunt corecte!\");\r\n        }\r\n\r\n        if(block.timestamp <= _timestamp){\r\n            revert(string(bytes.concat(bytes(\"Perioada de timp nu a expirat inca! Mai trebuie sa asteptati!\"), \"-\", bytes(string(abi.encode(block.timestamp - _timestamp))))) );\r\n        }\r\n\r\n        locked storage userInfo = users[msg.sender];\r\n        uint256 value = userInfo.amount;\r\n\r\n        userInfo.expire = 0;\r\n        userInfo.amount = 0;\r\n        queued[txId] = false;\r\n\r\n        payable(msg.sender).transfer(value);\r\n\r\n        emit Execute(txId, msg.sender, _value, _timestamp, start_timestamp);\r\n\r\n    }\r\n\r\n    function cancel(bytes32 _txId) external  {\r\n        if (!queued[_txId]) {\r\n            revert NotQueuedError(_txId);\r\n        }\r\n\r\n        queued[_txId] = false;\r\n\r\n        emit Cancel(_txId);\r\n    }\r\n\r\n    function getTimestamp() external view returns (uint){\r\n        \r\n        //emit Value(block.timestamp);\r\n        return block.timestamp;\r\n\r\n    }\r\n}\r\n",
  "sourcePath": "C:\\Users\\vlad.pislaru\\Desktop\\Master_I_1\\Foundation-Of-Blockchains\\Project\\Time-Locked-Wallet\\time-locked-wallet\\server\\contracts\\TimeLock.sol",
  "compiler": {
    "name": "solc",
    "version": "0.8.16+commit.07a7930e.Emscripten.clang"
  },
  "schemaVersion": "3.4.11",
  "updatedAt": "2023-01-15T09:43:38.313Z",
  "networkType": "ethereum",
  "devdoc": {
    "kind": "dev",
    "methods": {
      "queue(uint256,uint256,uint256,string)": {
        "params": {
          "_passCode": "A password for enhancing the security of the lock and that allows to unlock the money sooner",
          "_timestamp": "The timestamp moment after which the transaction can be executed.",
          "_value": "Amount of ETH to send",
          "start_timestamp": "The moment of the lock"
        }
      }
    },
    "version": 1
  },
  "userdoc": {
    "kind": "user",
    "methods": {},
    "version": 1
  }
}